:020000040800F2
:10000000484700209D010008A1010008A301000845
:10001000A5010008A7010008A901000800000000D0
:1000200000000000000000000000000005010008C2
:10003000AD01000800000000490100084F29000838
:10004000B3010008B3010008B3010008B3010008C0
:10005000B3010008B3010008B3010008B3010008B0
:10006000B3010008B3010008B3010008B3010008A0
:10007000B3010008B3010008B3010008B301000890
:10008000B3010008B3010008B3010008B301000880
:10009000B3010008B3010008B3010008B301000870
:1000A000B3010008B3010008B3010008B301000860
:1000B00000000000B3010008B3010008B30100080C
:1000C000B3010008B3010008B3010008B301000840
:1000D000B301000800000000B3010008B3010008EC
:1000E000B3010008B3010008B3010008DFF810D025
:1000F00002F03EFD00480047E3110008AFF3008026
:1001000048470020224B19680868B0E8F00F80F3D8
:100110000988BFF36F8F4FF0000080F311884EF015
:100120000D0E70470000000006480068006880F36C
:10013000088862B661B6BFF34F8FBFF36F8F00DFE1
:1001400000BF00BF08ED00E0EFF30980BFF36F8F41
:100150000F4B1A6820E9F00F106008B54FF0BF0090
:1001600080F31188BFF34F8FBFF36F8F01F0DAFC7C
:100170004FF0000080F31188BDE808401968086856
:10018000B0E8F00F80F30988BFF36F8F704700BFAE
:100190001C000020EFF30580704700000548004771
:1001A000FEE7FEE7FEE7FEE7FEE7FEE7FEE7FEE727
:1001B000FEE7FEE7ED00000830BF704720BF704744
:1001C00040BF7047BFF36F8F7047BFF34F8F7047CB
:1001D000BFF35F8F704701DF7047EFF31480704704
:1001E00080F31488BFF36F8F7047EFF30980704777
:1001F00080F309887047EFF30880704780F3088820
:10020000704772B6704762B6704771B6704761B694
:10021000704780F311887047EFF31280704740BA3F
:10022000704700BA7047000010B50446C548204426
:1002300078B1B0F5806F16D0B0F5744F1DD10121A3
:10024000880300F03AFE00214FF4804000F035FEB4
:1002500014E00121480400F03DFE00214FF400307D
:1002600000F038FE0AE00121880400F033FE00218E
:100270004FF4802000F02EFE00E000BF00BF10BD54
:100280002DE9F04385B006460D460024A14600BF87
:1002900000BF348A4CF2FF000440E888E989084333
:1002A000298A0843698A0843A98A08430443348297
:1002B0000024B4894EF6F3100440A8882989084325
:1002C000A98908430443B4810024B48A4FF6FF404F
:1002D000044068890443B48200BF684600F066FDAC
:1002E0009948864202D1DDF80C9001E0DDF80890D3
:1002F00009EBC90000EB091029688900B0FBF1F790
:100300006420B7FBF0F004012009642101FB1078A0
:10031000322000EB0810B0FBF1F000F00F000443B6
:10032000348105B0BDE8F0834FF41651016000211F
:100330008180C180018141810C2181810021C181A5
:10034000018241828182704721B1828942F4005248
:10035000828104E082894DF6FF731A4082817047E2
:10036000F0B503460024002600250020C1F3421406
:1003700001F01F06012707FA06F51846012C01D1E6
:100380000C3004E0022C01D1103000E014301AB11E
:1003900007682F43076002E00768AF430760F0BDBE
:1003A0001AB1838A0B43838202E0838A8B43838260
:1003B0007047028A4FF6F0731A400282028A0A439B
:1003C0000282704782894FF2FF731A4082818289CC
:1003D0000A438281704721B1828942F00202828100
:1003E00004E082894FF6FD731A4082817047028AC9
:1003F0004FF6DF731A400282028A0A430282704774
:1004000021B1028A42F48042028204E0028A4BF661
:10041000FF731A4002827047C1F30802828070475E
:1004200001468888C0F308007047818941F00101C6
:1004300081817047028BD2B20283028B42EA012291
:1004400002837047028B02F47F420283028B0A43CD
:100450000283704721B1828A42F02002828204E046
:10046000828A4FF6DF731A408282704721B1828AF6
:1004700042F01002828204E0828A4FF6EF731A4043
:100480008282704721B1828A42F00802828204E0AF
:10049000828A4FF6F7731A4082827047828A4FF63B
:1004A000FB731A408282828A0A438282704721B19A
:1004B000828A42F00202828204E0828A4FF6FD7351
:1004C0001A40828270470246002013880B400BB10D
:1004D000012000E00020704702888A4302807047B4
:1004E00070B502460B460024002100250020C3F30E
:1004F000421503F01F01012606FA01F1012D02D178
:100500009689314006E0022D02D1168A314001E081
:10051000968A31401C12012606FA04F416883440EB
:1005200011B10CB1012000E0002070BD10B5002217
:1005300000230A12012404FA02F304889C43048075
:1005400010BD000000BCFFBF0038014010B50446DC
:10055000B249601A8C4220D006DCB148204450B128
:10056000B0F5806F34D10FE0B0F5806F1ED0B0F5DC
:10057000006F2DD123E00121042000F09EFC00211A
:10058000042000F09AFC24E00121082000F095FCF2
:100590000021082000F091FC1BE00121102000F058
:1005A0008CFC0021102000F088FC12E001212020AA
:1005B00000F083FC0021202000F07FFC09E00121F5
:1005C000402000F07AFC0021402000F076FC00E0A2
:1005D00000BF00BF10BD10B50121084600F06DFC42
:1005E0000021012000F069FC10BD2DE9F041024618
:1005F00000250026002000230024002791F803C0D6
:100600000CF00F0591F803C00CF0100CBCF1000FBA
:1006100003D091F802C04CEA050591F800C0BCF186
:10062000000F31D0146800202AE04FF0010C0CFAC2
:1006300000F3B1F800C00CEA03069E421FD183000C
:100640004FF00F0C0CFA03F7BC4305FA03FC4CEA1D
:10065000040491F803C0BCF1280F05D14FF0010C40
:100660000CFA00FCC2F814C091F803C0BCF1480FAA
:1006700005D14FF0010C0CFA00FCC2F810C0401C70
:100680000828D2D314600024B1F800C0BCF1FF0FD9
:1006900034DD546800202EE000F1080C4FF0010812
:1006A00008FA0CF3B1F800C00CEA03069E4221D10F
:1006B00083004FF00F0C0CFA03F7BC4305FA03FC60
:1006C0004CEA040491F803C0BCF1280F05D100F1F5
:1006D000080C08FA0CF8C2F8148091F803C0BCF1B9
:1006E000480F07D100F1080C4FF0010808FA0CF888
:1006F000C2F81080401C0828CED35460BDE8F081B9
:100700004FF6FF710180022181700421C170704792
:100710000246002093680B400BB1012000E000204E
:1007200070470146886880B2704702460020D3684F
:100730000B400BB1012000E0002070470146C86863
:1007400080B270470AB1016100E041617047C16049
:1007500070474FF480320A4382618161826182690D
:1007600082697047024600202E4B18684FF680734E
:10077000184040EA021008432A4B186070472A4983
:10078000C861704770B50B46002200240021002587
:10079000244E7168C0F3034582B200F40016B6F52A
:1007A000001F02D121F0E0610AE000F48016B6F5E6
:1007B000801F04D1032606FA05F4A14300E091430B
:1007C00043B100F40016B6F5001F02D141EA024120
:1007D00000E01143134E716070BD30B500228B07ED
:1007E0001C0F0F2303FA04F20E4B08338C1053F83E
:1007F000243093430B4C08348D1044F825302346A5
:100800008C1053F824308C07240F00FA04F423438F
:10081000044C08348D1044F8253030BD00100140E0
:1008200000F8FEBF00000140000020420020411EF1
:10083000EF4A11604A0DEE498039C1F88420411E0B
:100840004FF0E022C2F880124A0DEA490A6000BF68
:1008500004E00022E84941F82020401C0B28F8D38E
:10086000704700204FF02061E44A11600021121D02
:100870001160E349121D11600021121D1160121D4B
:10088000116000BF05E00022DC49143141F820204E
:10089000401C0328F7D30021D84A20321160491E9A
:1008A000121D1160121D1160121D11607047D44994
:1008B0000143D24A083211607047F0B5002100228E
:1008C000002300250F24C678002E35D0CB4E0836E5
:1008D000366806F4E066C6F5E066310AC1F1040543
:1008E000CC40467806FA05F1867826403143090166
:1008F0000678B607F60EB140BF4E0778BF1056F81F
:1009000027200678B607F70EFF2606FA07F39A4364
:1009100019400A43B84E0778BF1046F827200678DA
:1009200006F01F070126BE4007787F11BF0007F1C0
:10093000E027C7F800610BE0067806F01F070126E4
:10094000BE40AB4F90F800C04FEA6C1C47F82C60DB
:10095000F0BD0021017041708170C170704710B509
:10096000FFF74FFC10BD10B5FFF74DFC10BD10B5E3
:10097000FFF74BFC10BD10B5FFF749FC10BD10B5DB
:1009800004462001FFF745FC10BD10B5FFF744FCFD
:1009900010BD9A480068C0F30930704710B5014691
:1009A0000020002201F01F04012303FA04F2904BFF
:1009B00080334C1153F824301340934201D101206D
:1009C00000E0002010BD8F490860704700F01F0252
:1009D00001219140874A121F431142F823107047AA
:1009E00086480068C0F30900704710B50146002032
:1009F000002201F01F04012303FA04F27D4B7C3333
:100A00004C1153F824301340934201D1012000E0EF
:100A1000002010BD7948001F006870477A4A02EA3A
:100A2000C112764B1B1D1A601A46126802431A60E7
:100A300070477348001D714908310860704770485D
:100A4000401C6E4908310860704739B16B4A0C325E
:100A500012680243694B0C331A6006E0674A0C3295
:100A600012688243654B0C331A60704710B5002240
:100A700000F01F04012303FA04F239B15F4B203365
:100A80001B6813435D4C2034236006E05B4B20332E
:100A90001B689343594C2034236010BDF0B50346C6
:100AA0000C4615460020FF2200260021534F083730
:100AB0003F6807F4E067C7F5E067390AC1F1040051
:100AC000CA4004FA00F105EA02073943090103F0BC
:100AD000C0008009C3F30122D700B9404FEAC20C1D
:100AE000FF2707FA0CF6454F143757F82070B74325
:100AF000DFF808C10CF1140C4CF82070674657F869
:100B000020700F434CF82070F0BD10B50246002055
:100B100000230021910A01F00F01012404FA01F1E0
:100B2000364C2034246804EA01038B4201D10120B1
:100B300000E0002010BD002100F01F012F4A1268C4
:100B400001238B401A432D4B1A60704710B50021CA
:100B500000F01F01294A12684B1E01249C402243C9
:100B6000264B1A6010BD10B502460020002300215C
:100B7000C2F38331012404FA01F1204C20342468AB
:100B800004EA01038B4201D1012000E0002010BDE6
:100B900030B50146002000220023C1F38142C1F399
:100BA00001531AB9154C2834206811E0012A0CD1E0
:100BB000124C24342468DD0024FA05F0022B02D004
:100BC00000F00F0004E0C0B202E00C4C2C342068AE
:100BD00030BD014600200022C1F380521AB9074BF4
:100BE0003033186802E0054B343318687047000052
:100BF00080E100E084E200E000E400E004ED00E0D9
:100C00000000FA0500EF00E080FFFF1F0020D5493B
:100C1000C86008611420486100208861C8610846E6
:100C2000006840F00100086008464068CE4908406E
:100C3000CC49486008460068CC490840C94908606A
:100C40000846006820F4802008600846406820F4C8
:100C5000FE004860002088607047C249096821F49E
:100C60008031C04A11601146096821F48021116069
:100C7000B0F5803F03D0B0F5802F0ED106E0B94922
:100C8000096841F48031B74A116007E0B549096845
:100C900041F4A021B34A116000E000BF00BF7047DB
:100CA00001460020AF4A106820F0F80040EAC10079
:100CB00010607047AE490860704702460020A94B9B
:100CC000586820F47C1042EA01031843A54B586091
:100CD0007047A7490866704701460020A14A50683E
:100CE00020F003000843506070479E48406800F0C1
:100CF0000C007047014600209A4A506820F0F0002E
:100D000008435060704701460020964A506820F41E
:100D1000E06008435060704701460020914A5068E7
:100D200020F4605040EAC1005060704729B18D4AFC
:100D3000527A02438B4B5A7204E08A4A527A8243B7
:100D4000884B5A7270478A49D8310860704701460B
:100D50000020844A506820F44040084350607047A7
:100D60000021804A203211707E4A82F8201001282A
:100D700002D004280AD104E001217A4A20321170FD
:100D800005E00521774A2032117000E000BF00BF66
:100D900070477849086070477249096A0143714A8F
:100DA00011627047734944390860704730B50021BB
:100DB0000022002400236B4D6D6805F00C0121B169
:100DC000042905D0082923D105E06B4D056022E0F8
:100DD000694D05601FE0634D6D6805F470120225D2
:100DE00005EB92425F4D6D6805F480341CB9634D8C
:100DF000554305600BE05B4D6D6805F400351DB192
:100E00005E4D5543056002E05B4D5543056002E0D1
:100E1000594D056000BF00BF524D6D6805F0F001EF
:100E20000909574D6B5C0568DD4045604D4D6D68A7
:100E300005F4E061090A524D6B5C4568DD40856050
:100E4000484D6D6805F46051C90A4D4D6B5C4568AD
:100E5000DD40C560434D6D6805F44041890B494D47
:100E60006B5CC568B5FBF3F5056130BD29B13D4A42
:100E7000526902433B4B5A6104E03A4A5269824349
:100E8000384B5A61704729B1364A92690243354B53
:100E90009A6104E0334A92698243324B9A61704707
:100EA00029B1304AD26902432E4BDA6104E02D4A5F
:100EB000D26982432B4BDA61704729B1294AD26843
:100EC0000243284BDA6004E0264AD2688243254B6D
:100ED000DA60704729B1234A12690243214B1A6133
:100EE00004E0204A126982431E4B1A61704721496F
:100EF0004039086070471E49C86470471949C87175
:100F0000704710B501460022002300204A11012A33
:100F100002D1144C236806E0022A02D1114C236A44
:100F200001E0104C636A01F01F02012494401C4050
:100F30000CB1012000E0002010BD0A48406A40F0DA
:100F4000807008494862704701460020054A92684F
:100F50000A400AB1012000E0002070470149887270
:100F600070470000001002400000FFF8FFFFF6FE8F
:100F7000000042428004424200127A0000093D0013
:100F8000282D0008382D0008042808D14FF0E02152
:100F9000096941F004014FF0E022116107E04FF0D0
:100FA000E021096921F004014FF0E022116170474E
:100FB0004FF0E0214861704720B900214FF0E02256
:100FC000916112E0012808D14FF0E021096941F058
:100FD00001014FF0E022116107E04FF0E0210969C3
:100FE00021F001014FF0E0221161704740B14FF054
:100FF000E021096941F002014FF0E022116107E0B0
:101000004FF0E021096921F002014FF0E022116167
:1010100070474FF0E0208069704710B5014600220C
:10102000002300204A11012A03D14FF0E024236954
:1010300002E04FF0E024E36901F01F020124944034
:101040001C400CB1012000E0002010BD10B588B09C
:101050004FF4E134012144F20400FFF714FF4FF490
:101060008060ADF8040004208DF8070001A91F4836
:10107000FFF7BBFA4FF40070ADF8040003208DF8C1
:10108000060018208DF8070001A91848FFF7ADFAEF
:1010900002940020ADF80C00ADF80E00ADF8100081
:1010A000ADF812000C20ADF814000020ADF81600C9
:1010B000ADF818004FF40070ADF81A000020ADF83C
:1010C0001C0002A90A48FFF7DBF801210848FFF7D6
:1010D0003BF908B010BD0A46054900BF0B8803F074
:1010E0008003002BFAD08880704700000008014080
:1010F00000380140002415E001204F49086000201D
:101100004E4908604EA001F045FD2046641C0A28A7
:1011100003D14D48006800F0C6F9142C02D100201C
:1011200000F0C1F9E8E704462546002611E000205A
:1011300041490860012041490860294643A001F067
:1011400029FD3046761C322803D14348006800F060
:10115000AAF9ECE710B5FFF759FD4FF48030FFF71F
:101160007CFD00BF3120FFF7CCFE0028FAD0022022
:101170003A4908600020FFF7BDFD0020FFF7CCFDD5
:101180004FF48060FFF7BFFD4FF4E0114FF4803063
:10119000FFF793FD0120FFF79CFD00BF3920FFF70B
:1011A000B0FE0028FAD00220FFF796FD00BFFFF73F
:1011B0009CFD0828FBD101217D20FFF764FE012161
:1011C0008803FFF76DFE00210846FFF727FC4FF468
:1011D0004070FFF76CFB0420FFF7D6FEFFF736FFE9
:1011E00010BD1CB5FFF7B6FF1DA001F0D3FC1E48D3
:1011F000012100236422CDE900101CA1AFF20B10E5
:1012000000F000F91048012102236422CDE900100A
:1012100018A1AFF2ED0000F0F5F80F48012103230B
:101220006422CDE9001013A1AFF2051000F0EAF836
:1012300000F0F3FD00201CBD100000201400002071
:101240007461736B310A0000080000207461736BD5
:10125000322025640A0000000C000020002002401B
:101260006E6968616F0A0000040000207461736B8E
:10127000310000007461736B3200000010B500246F
:1012800007E004EB8401FE4A02EB810001F0BDFAA5
:10129000641C052CF5D3FB4801F0B7FAFA4801F0BD
:1012A000B4FAFA4801F0B1FAF94801F0AEFAF94897
:1012B00001F0ABFAF348F8490860F348F7490860D1
:1012C00010BD10B5044601F025FBF5480068401C30
:1012D000F3490860F348006840B9F24804600846E2
:1012E000006801280DD1FFF7C9FF0AE0EE48006849
:1012F00038B9EC480068C06AE16A884201D8E94818
:101300000460EA480068401CE849086094F82C1022
:1013100001208840E64909680843E5490860E16A18
:1013200001EB8101D64A02EB81014868A060826826
:10133000E260211D826851608160E16A01EB8101F8
:10134000CF4A02EB81026261E16A01EB8101CC4A82
:1013500052F82110491CE26A02EB8202C84B43F8A2
:10136000221001F0E6FAD048006868B1CD48006864
:10137000C06AE16A884207D24FF08050CD490860C8
:10138000BFF34F8FBFF36F8F10BD2DE9FF5F804616
:101390000E469146DDE90E7A109CA9F10100216B01
:1013A00001EB800B2BF0070B7EB1002507E0715D90
:1013B00004F134004155705D00B902E06D1C102D40
:1013C000F5D300BF002143200155052F00D304278A
:1013D000E762201D01F026FA04F1180001F022FA5C
:1013E0002461C7F10500A061646241465846039A32
:1013F00001F061FA2060BAF1000F01D0CAF8004094
:10140000BDE8FF9F2DE9FF4F85B08046894617460E
:10141000DDE912ABB80001F0D0FA064676B14C20F7
:1014200001F0CBFA04462CB14C21204601F07FFBA1
:10143000266304E0304601F024FB00E000247CB188
:101440000020CDE900ABCDE902403A46494640468E
:10145000089BFFF79AFF2046FFF733FF012501E0C5
:101460004FF0FF35284609B0BDE8F08F10B50446AF
:10147000206B01F006FB204601F003FB10BD8648FF
:101480000068006808B9012000E0002020B14FF09A
:10149000FF308949086005E07F480068C06800683F
:1014A00085490860704770B5054601F033FA15B9F3
:1014B0007C48006800E028460446201D01F0DBF966
:1014C00078B9E06A00EB80006D4951F8200040B91E
:1014D00094F82C10012088407549096881437448AC
:1014E0000160A06A18B104F1180001F0C4F96F4856
:1014F0000068401C6D4908606A480068844209D150
:10150000211D634801F091F96C480068401C6B494B
:10151000086006E062480068401E61490860FFF705
:10152000AEFF01F006FA5F480068844202D0204610
:10153000FFF79CFF5C48006858B15A480068844235
:1015400007D14FF080505B490860BFF34F8FBFF366
:101550006F8F70BD2DE9F0410027594800680028C1
:101560007ED158480068451C564805608DB94A48E8
:10157000D0F8008049480068474908604748C0F8EB
:10158000008051480068401C4F490860FFF777FF12
:1015900000BF49480068854270D300BF3E480068DC
:1015A000006808B9012000E0002020B14FF0FF30B2
:1015B0004149086090E038480068C068C4686668BF
:1015C000B54202D23C48066086E06069D4E9021266
:1015D0008A60D4E902214A60211D42688A4201D111
:1015E000E1684160002262610168491E0160A06AF1
:1015F00098B1A06AD4E907128A60D4E907214A6049
:1016000004F1180142688A4201D1216A4160002236
:10161000A2620168491E016000BF94F82C100120ED
:10162000884023490968084321490860E16A01EBC1
:101630008101134A02EB81014868A0608268E26080
:10164000211D826851608160E16A01EB81010C4AD1
:1016500002EB81026261E16A01EB8101084A00E06C
:101660004BE052F82110491CE26A02EB8202044B63
:1016700043F822100B49E06A096827E02DE00000DA
:101680007C000020E0000020F40000200801002081
:101690001C01002030010020200000202400002038
:1016A0002C0000201C0000203800002048000020F2
:1016B0003400002004ED00E04C0000202800002051
:1016C000580000203000002044000020C96A8842F1
:1016D0007FF664AF012761E700BFFD480068C06A7C
:1016E00000EB8000FB4951F82000012800D90127B8
:1016F000F948006800B1012704E0F8480068401C80
:10170000F64908603846BDE8F08170B5002400262F
:1017100001F000F9F2480068401EF14908600846EF
:10172000006800287ED1EF48006800287AD05BE08E
:10173000ED48C068C468A06AD4E907128A60D4E999
:1017400007214A6004F1180142688A4201D1216AE6
:1017500041600022A2620168491E01606069D4E90B
:1017600002128A60D4E902214A60211D42688A423D
:1017700001D1E1684160002262610168491E016097
:1017800094F82C1001208840D84909680843D749AB
:101790000860E16A01EB8101CE4A02EB81014868F1
:1017A000A0608268E260211D826851608160E16A08
:1017B00001EB8101C74A02EB81026261E16A01EB40
:1017C0008101C44A52F82110491CE26A02EB8202EC
:1017D000C04B43F82210BE49E06A0968C96A8842D2
:1017E00002D30120BC490860BF48006808B9012045
:1017F00000E0002000289BD00CB1FFF740FEB74866
:10180000056865B100BFFFF7A5FE10B10120B24920
:1018100008606D1E002DF6D10020B0490860AE486A
:10182000006800E008E038B101263007B0490860E0
:10183000BFF34F8FBFF36F8F01F07BF8304670BD61
:101840002DE9F04105460E46AA480768A048006801
:10185000001D01F010F850B99D48006890F82C1058
:1018600001208840A14909688143A0480160681CA3
:10187000D8B9D6B1A04948689549096888609449A3
:1018800082680968CA6092490968091D82685160C6
:101890008F490968091D8160974A8D4909684A6125
:1018A00011460968491C11601AE07C1988480068D3
:1018B0004460BC4207D286480168091D8F48006811
:1018C00000F0BFFF0CE082480168091D8C480068E9
:1018D00000F0B7FF8B480068844201D28948046059
:1018E000BDE8F0817E480068401C7D490860704773
:1018F0002DE9F047044688464FF00009FFF7F2FF54
:101900007C480668206800EB08052068B04207D9CB
:101910002068A8420BD9B54209D94FF0010906E069
:101920002068A84201D8B54201D94FF001092560CD
:10193000B9F1000F03D0A81B0021FFF781FFFFF7CB
:10194000E4FE07463FB94FF0805069490860BFF395
:101950004F8FBFF36F8F4846BDE8F08770B50446E0
:10196000002544B1FFF7BEFF00212046FFF768FFC6
:10197000FFF7CBFE05463DB94FF080505C4908604B
:10198000BFF34F8FBFF36F8F70BD70B5044600F08B
:10199000C1FF14B94E48006800E020460646F56ACB
:1019A00000F0C7FF284670BD70B5024600BFBF25D6
:1019B000EFF3118485F31188BFF34F8FBFF36F8F5F
:1019C00000BF214612B9424C246800E01446234669
:1019D000D86A00BF81F3118800BF70BD2DE9F047C0
:1019E00080460D464FF00009052D00D3042500F078
:1019F00091FFB8F1000F02D13548006800E0404681
:101A00000446E66AAE427FD0B5420BD93048006842
:101A100084420DD02E480068C06AA84208D84FF012
:101A2000010905E02A480068844201D14FF001090C
:101A3000E76AE562A06900F0004010B9C5F1050051
:101A4000A06107EB8701234A02EB810160698842AC
:101A500001D1012000E00020B0B3201D00F00BFFF9
:101A600030B90120B8402149096881431F4801600D
:101A700094F82C10012088401C49096808431B4930
:101A80000860E16A01EB8101124A02EB81014868BA
:101A9000A0608268E260211D826851608160E16A15
:101AA00001EB81010B4A02EB81026261E16A01EB09
:101AB0008101084A52F82110491CE26A02EB8202B5
:101AC000044B43F8221000BFB9F1000F25D01CE0F1
:101AD0001C0000207C000020400000203C00002072
:101AE000580000202C0000200801002034000020B5
:101AF00004ED00E030000020300100202400002030
:101B0000200000204C00002008E04FF08050F849F1
:101B10000860BFF34F8FBFF36F8F00BF00F009FF66
:101B2000BDE8F087F348006818B10120F249086069
:101B30001DE00020F0490860F0480068B0FA80F02D
:101B4000C0F11F0101EB8102ED4B03EB8200426803
:101B50005268426000F108024368934202D1426831
:101B6000526842604268D268E64B1A6000BF704714
:101B700070B5054600F0CEFE15B9E248006800E0F9
:101B800028460446201D00F076FE78B9E06A00EB96
:101B90008000DB4951F8200040B994F82C10012056
:101BA0008840D64909688143D4480160A06A18B1C9
:101BB00004F1180000F05FFE211DD34800F035FE4F
:101BC000002009E004F14801095C012903D1002249
:101BD00004F148010A54401C0128F3DB00F0A9FE7F
:101BE000CA48006828B100F095FEFFF748FC00F0F5
:101BF000A0FEC4480068844217D1C448006840B1C0
:101C00004FF08050BA490860BFF34F8FBFF36F8F1A
:101C10000BE0BD480068BE490968884203D1002036
:101C2000B849086001E0FFF77DFF70BD10B50146BF
:101C300000200A46B44C5369A34201D1012300E0BD
:101C4000002373B1B34C936AA34201D1012300E096
:101C5000002333B9936A0BB9012300E0002303B1D9
:101C6000012010BD70B505462C46A6480068844288
:101C700045D0002C43D000F04DFE2046FFF7D6FFA4
:101C8000D8B3201D00F0F7FD94F82C1001208840F7
:101C90009A490968084399490860E16A01EB8101A2
:101CA000974A02EB81014868A0608268E260211DCA
:101CB000826851608160E16A01EB8101904A02EB28
:101CC00081026261E16A01EB81018D4A52F82110C3
:101CD000491CE26A02EB8202894B43F822108949CF
:101CE000E06A0968C96A884207D34FF0805080498A
:101CF0000860BFF34F8FBFF36F8F00F01AFE70BD07
:101D00002DE9F04106460027344600BFBF21EFF31E
:101D1000118081F31188BFF34F8FBFF36F8F00BF26
:101D200005462046FFF782FF002841D07148006831
:101D3000002838D17349E06A0968C96A884203D328
:101D4000012701206C490860201D00F094FD94F8E3
:101D50002C100120884069490968084367490860D8
:101D6000E16A01EB8101664A02EB81014868A060EB
:101D70008268E260211D826851608160E16A01EB46
:101D800081015F4A02EB81026261E16A01EB81013C
:101D90005B4A52F82110491CE26A02EB8202584B5E
:101DA00043F8221004E004F118015A4800F03DFD08
:101DB00000BF85F3118800BF3846BDE8F08110B53B
:101DC00016E000F0A7FD5448C068C468201D00F06C
:101DD00052FD4F480068401E4D4908604F4800685A
:101DE000401E4E49086000F0A4FD2046FFF73EFB70
:101DF0004A4800680028E4D110BD00BFFFF7DFFFAC
:101E00003F4800680128F9D94FF0805038490860F0
:101E1000BFF34F8FBFF36F8FF0E71CB54048002131
:101E20000B468022CDE900103EA14048FFF7EAFAB8
:101E30000446012C14D100BFBF2080F31188BFF3EA
:101E40004F8FBFF36F8F00BF4FF0FF3038490860EE
:101E500001202E49086000203649086000F044FD4A
:101E6000354800681CBD10B500BFBF2080F3118845
:101E7000BFF34F8FBFF36F8F00BF0020234908606F
:101E800000F047FD10BD2B49086870470021294A22
:101E9000106870471E4800687047014611B919481C
:101EA000006800E00846024602F13400704770B551
:101EB0000446FFF717FD00F02DFD20480068204480
:101EC0001E49086000F035FDFFF71FFC0546284657
:101ED00070BD70B505460C460A48016818312846A1
:101EE00000F0AFFC01212046FFF7AAFC70BD000006
:101EF00004ED00E0580000204000002034000020E5
:101F00007C0000201C000020300100203800002050
:101F10002C000020080100201C01002028000020C7
:101F20005000002049444C4500000000FB1D000803
:101F30004C00002030000020540000203C00002015
:101F400070B504460D46164645F00040FC49096848
:101F500088616068FA490968C861F9498268096856
:101F60000A62F7490968183182685160F4490968C2
:101F700018318160F24909688C622168491C21602E
:101F800001213046FFF75CFC70BD70B50346D86890
:101F9000C168886AD1E90745A560D1E90754656041
:101FA00001F118044568A54201D10C6A446000257E
:101FB0008D620468641E0460E248006800283DD118
:101FC0004869D1E90245A560D1E9025465600C1D5C
:101FD0004568A54201D1CC68446000254D61046884
:101FE000641E046091F82C400120A040D64C246867
:101FF0002043D54C2060CC6A04EB8404D34D05EB20
:102000008404606888608568CD600C1D85686C609C
:102010008460CC6A04EB8404CC4D05EB84054D61EF
:10202000CC6A04EB8404C94D55F82440641CCD6A85
:1020300005EB8505C54E46F8254010E0C44C6068A8
:10204000C86185680D6201F1180485686C60846060
:10205000BF4D8D622C462468641C2C6000BFB84CB8
:10206000C86A2468E46AA04204D901220120B94C5C
:10207000206000E00022104670BD70B502460B469D
:1020800043F000411160D0681169D2E90154AC609D
:10209000D2E901456C604C68944201D194684C606F
:1020A000002414610C68641E0C604169D0E902458B
:1020B000A560D0E902546560041D4D68A54201D1B8
:1020C000C4684C60002545610C68641E0C6090F883
:1020D0002C400121A1409C4C246821439A4C216052
:1020E000C46A04EB8404994D05EB84046168816043
:1020F0008D68C560041D8D686C608C60C46A04EBDB
:102100008404924D05EB84054561C46A04EB8404A4
:102110008E4D55F82440641CC56A05EB85058B4E31
:1021200046F82540864CC16A2468E46AA14202D977
:102130000121884C216070BD10B5044600F0EAFB17
:1021400085480068206085480068606000F0F1FB09
:1021500010BD814909680160804909684160704784
:1021600070B506460C4600F0D5FB7C4802687068E6
:10217000131A2068401C08B9002519E07649306818
:102180000968884206D07068904203D80125002073
:1021900020600DE02068984207D92068C01A2060AE
:1021A0003046FFF7D6FF002502E000202060012521
:1021B00000F0BFFB284670BD0120664908607047EB
:1021C0005F49086870475E49096888695C49096821
:1021D000C96AC1F105015A4A1268916170472DE937
:1021E000F04104460F46164600F094FB5448006840
:1021F000443050F8240080B901215148006848302B
:10220000015556B13046FFF71BFB4FF08050544943
:102210000860BFF34F8FBFF36F8F00F08AFB00F0B1
:1022200079FB47480068443050F824506DB137B10D
:10223000002143480068443040F8241005E0681E3F
:102240003F490968443141F8240000213C480068B6
:102250004830015500F06DFB2846BDE8F0812DE9BE
:10226000F04704460F4690461D46DDF8209000F0EA
:1022700051FB334800684830005D02281AD03049CD
:102280000968443101EB84000168B9430160012110
:102290002B48006848300155B9F1000F0AD0484674
:1022A000FFF7CEFA4FF080502D490860BFF34F8FF3
:1022B000BFF36F8F00F03DFB00F02CFB2DB12048E9
:1022C0000068443050F8240028601D4800684830F9
:1022D000005D022801D0002609E01949096844314F
:1022E00001EB8400016821EA080101600126002158
:1022F000134800684830015500F01BFB3046BDE82C
:10230000F0872DE9F05F81460D4616461F46DDF841
:1023100028A04FF0010B4C4600F0FCFABAF1000F78
:1023200005D004F1440050F82500CAF8000004F17B
:10233000480010F8058002214155052F3CD211E0DC
:102340001C00002058000020340000207C000020E9
:102350000801002040000020440000203000002040
:1023600004ED00E0DFE807F027030D171C0004F17F
:10237000440050F82500304304F1440141F82500A1
:102380001BE004F1440050F82500401C04F1440116
:1023900041F8250011E004F1440040F825600CE00C
:1023A000B8F1020F04D004F1440040F8256001E0C8
:1023B0004FF0000B01E000E000BF00BFB8F1010FDB
:1023C0004AD16069D4E902128A60D4E902214A60E4
:1023D000211D42688A4201D1E168416000226261A8
:1023E0000168491E016094F82C1001208840FE49C4
:1023F00009680843FC490860E16A01EB8101FB4A76
:1024000002EB81014868A0608268E260211D826859
:1024100051608160E16A01EB8101F44A02EB8102C3
:102420006261E16A01EB8101F04A52F82110491C16
:10243000E26A02EB8202ED4B43F82210EC49E06ABB
:102440000968C96A884207D94FF08050E949086095
:10245000BFF34F8FBFF36F8F00F06BFA5846BDE8A4
:10246000F09F2DE9F04F05460C46DDE909674FF076
:102470000109294600BF4FF0BF0AEFF311808AF32C
:102480001188BFF34F8FBFF36F8F00BF804626B117
:1024900001F1440050F82400306001F1480010F8C8
:1024A00004C04FF0020A00F804A0052B29D2DFE88F
:1024B00003F027030D171C0001F1440050F824001D
:1024C000104301F1440A4AF824001BE001F14400E2
:1024D00050F82400401C01F1440A4AF8240011E09D
:1024E00001F1440040F824200CE0BCF1020F04D0BC
:1024F00001F1440040F8242001E04FF0000901E020
:1025000000E000BF00BFBCF1010F7CD1BA480068F9
:1025100000285FD14869D1E902ABCAF808B0D1E917
:1025200002BACAF804B001F1040AD0F804B0D345E5
:1025300003D1D1F80CA0C0F804A04FF0000BC1F8F3
:1025400014B0D0F800A0AAF1010AC0F800A091F8D8
:102550002CA0012000FA0AF0DFF88CA2DAF800A023
:1025600040EA0A00DFF880A2CAF80000D1F82CA0E7
:102570000AEB8A0ADFF874B20BEB8A0ADAF8040075
:102580008860D0F808B0C1F80CB001F1040AD0F8A6
:1025900008B0CBF804A0C0F808A0D1F82CA00AEB32
:1025A0008A0ADFF848B20BEB8A0BC1F814B0D1F8F5
:1025B0002CA00AEB8A0ADFF834B25BF82AA00AF1F1
:1025C000010AD1F82CB00BEB8B0BDFF820E24EF8B0
:1025D0002BA01EE0DFF824A2DAF80400C861D0F8CE
:1025E00008B0C1F820B001F1180AD0F808B0CBF853
:1025F00004A0C0F808A0DFF804B2C1F828B0DA4699
:10260000DAF800A000E015E00AF1010ACBF800A01A
:1026100000BFDFF8DCA1C86ADAF800A0DAF82CA065
:10262000504507D90FB1012038600120DFF8D0A153
:10263000CAF8000000BF88F3118800BF4846BDE813
:10264000F08F2DE9F04103461446184600BFBF271E
:10265000EFF3118287F31188BFF34F8FBFF36F8FB2
:1026600000BF154600F14802565C02275754121F5E
:1026700052F82120521C00F1440747F82120012E76
:1026800074D15D4A1268002A4CD14269D0E9027CBB
:10269000C7F808C0D0E902C7C7F804C0071DD2F8C0
:1026A00004C0BC4501D1C76857604FF0000CC0F8AA
:1026B00014C017687F1E176090F82C700122BA4072
:1026C000494F3F683A43484F3A60C76A07EB87076C
:1026D000DFF818C10CEB87077A688260D2F808C06F
:1026E000C0F80CC0071DD2F808C0CCF80470976081
:1026F000C76A07EB8707DFF8F4C00CEB870CC0F85C
:1027000014C0C76A07EB8707DFF8E0C05CF82770E2
:102710007F1CD0F82CC00CEB8C0CDFF8D08048F874
:102720002C7017E0354F7A68C261D2F808C0C0F843
:1027300020C000F11807D2F808C0CCF804709760E8
:10274000DFF8B8C0C0F828C067463F687F1CCCF8E7
:10275000007000BF264FC26A3F68FF6ABA4205D9BF
:102760000CB1012222600122254F3A6000BF85F39F
:10277000118800BFBDE8F0812DE9F04106460C4606
:1027800016B91B48006800E03046074600F0C2F862
:1027900007F14800005D022805D1002107F148003B
:1027A0000155012500E0002500F0C3F82846BDE8EA
:1027B000F0812DE9F04106460C46174616B90C4843
:1027C000006800E03046054600F0A4F805F144003A
:1027D00050F8248050F82400B84305F1440141F832
:1027E000240000F0A6F80DE0340000207C0000205A
:1027F0001C00002004ED00E058000020080100202B
:10280000400000204046BDE8F08100F10801416031
:102810004FF0FF31816000F10801C16001610021CA
:102820000160704700210161704742684A60936807
:102830008B60936859609160086103685B1C03605A
:10284000704710B502460B685C1C0CB9106907E0B4
:1028500002F1080000E04068446824689C42FAD90C
:1028600044684C604C68A160886041600A611468EB
:10287000641C146010BD01460A69D1E901309860FA
:10288000D1E9010358605068884201D188685060DE
:10289000002008611068401E10601068704700003A
:1028A00000BFBF2080F31188BFF34F8FBFF36F8F3E
:1028B00000BF00BFFEE7001F4FF080730360001FE2
:1028C00021F001030360001F2D4B036014380260E8
:1028D0002038704700204FF0E021086188612948C6
:1028E000486107200861704710B52748006840F428
:1028F0007F00254908600846006840F07F40086076
:10290000FFF7E8FF002021490860FDF70DFC0020DB
:1029100010BD704700BFBF2080F31188BFF34F8FF9
:10292000BFF36F8F00BF19480068401C174908604B
:10293000704716480068401E144908600846006841
:1029400020B9002080F3118800BF00BF704710B588
:1029500000BFBF2080F31188BFF34F8FBFF36F8F8D
:1029600000BFFEF7F7FD20B14FF0805006491C393B
:10297000086000BF002080F3118800BF10BD000078
:10298000A12800083F19010020ED00E05C000020B4
:102990005E4A22F007005E4A106000225C4B5A60DB
:1029A00044F2F8325B4B5A6000221A60014644F24E
:1029B000F8324A601A460A6070472DE9F04705462A
:1029C0004FF00009FEF78EFF5348006820B9FFF76B
:1029D000DFFF01205049086075B105F00700C0F124
:1029E0001008C8F1FF30A84201D2012000E0002009
:1029F00008B9454400E00025012000EBE5700028FF
:102A00003AD0002D38D045480068854234D8404F30
:102A10003846046801E0274624686068A84202D26C
:102A200020680028F7D13B48844225D0386800F15F
:102A30000809206838606068401B102810D96619A2
:102A40006068401B706065607168314800E0006834
:102A5000026852688A42FAD302683260066000BF98
:102A60002E4960680968081A2C490860606840F0BF
:102A70000040606000202060FEF747FE4846BDE849
:102A8000F08770B506463546FEB1083D2C466068B5
:102A9000C00FD0B12068C0B9606820F0004060600D
:102AA000FEF720FF61681A4800E00068026852687B
:102AB0008A42FAD302682260046018496068096893
:102AC000084416490860FEF720FE70BD13480068F0
:102AD0007047704770B504460D46002634B1701E2D
:102AE000B0FBF4F0A84201D2012000E0002050B970
:102AF00004FB05F0FFF761FF064626B104FB05F174
:102B0000304600F014F8304670BD00004B01002044
:102B10006000002068000020740000207000002089
:102B2000D2B201E000F8012B491EFBD2704700220F
:102B3000F6E710B513460A4604461946FFF7F0FFBC
:102B4000204610BD30B50B4601460020202201244E
:102B500009E021FA02F59D4205D303FA02F5491B6B
:102B600004FA02F52844151EA2F10102F1DC30BD81
:102B7000064C074D06E0E06840F0010394E80700CA
:102B800098471034AC42F6D3FDF7B4FA3C2D000858
:102B90005C2D00080FB4054B10B503A9044A029838
:102BA00000F018F810BC5DF814FB0000D710000806
:102BB0007800002002E008C8121F08C1002AFAD1DC
:102BC00070477047002001E001C1121F002AFBD1AD
:102BD000704700002DE9FF4F89B09B460446002551
:102BE00006E025280BD05A460B999047641C6D1CB3
:102BF00020780028F5D10DB02846BDE8F08F0027D9
:102C0000B8460122474900E0074314F8013F203B42
:102C100002FA03F00842F7D120782E2819D114F8CF
:102C2000010F47F004072A280ED06FF02F022078FA
:102C3000A0F1300109290CD808EB880102EB410111
:102C400000EB0108641CF2E70A98641C50F8048B3E
:102C50000A9020780028CED0642808D0692806D0B1
:102C600075281ED05A460B9990476D1C58E00A995A
:102C70004FF00A0901C90A91002802DA40422D21C9
:102C800002E0390504D52B218DF82010012103E045
:102C9000F90704D02021F7E78A4608AE0DE00021AD
:102CA000FAE70A994FF00A0901C90A91F7E749467C
:102CB000FFF748FF303106F8011D0028F7D1ADEBD2
:102CC000060000F12009780701D44FF00108C8453B
:102CD00002DDA8EB090000E000208046002706E0A6
:102CE00008A85A46C05D0B9990476D1C7F1C57453C
:102CF000F6DB04E030205A460B9990476D1CB8F182
:102D00000001A8F10108F5DC05E016F8010B5A46B0
:102D10000B9990476D1CB9F10001A9F10109F4DC90
:102D2000641C65E70928010000000000010203049B
:102D30000102030406070809020406085C2D0008C6
:102D4000000000207C000000B42B0008D82D0008F3
:102D50007C000020CC460000C42B000800000000CE
:102D60000000000000000000000000000000000063
:102D70000000000000000000000000000000000053
:102D80000000000000000000000000000000000043
:102D90000000000000000000000000000000000033
:102DA0000000000000000000000000000000000023
:102DB0000400000000000000AAAAAAAA0000000067
:102DC000000000000000000000000000F8430000C8
:082DD0000000000000000000FB
:04000005080000ED02
:00000001FF
